:0100000002FD
:0100010001FD
:0100020001FC
:0100030001FB
:0100040000FB
:0100050000FA
:0100060000F9
:0100070000F8
:0100080000F7
:0100090000F6
:01000A0000F5
:01000B0000F4
:01000C0000F3
:01000D00FFF3
:01000E00FFF2
:01000F00FFF1
:01001000FEF1
:01001100FFEF
:01001200FFEE
:01001300FFED
:0100140000EB
:0100150000EA
:0100160000E9
:0100170000E8
:0100180000E7
:0100190000E6
:01001A0000E5
:01001B0000E4
:01001C0000E3
:01001D0001E1
:01001E0001E0
:01001F0001DF
:0100200006D9
:0100210004DA
:0100220003DA
:0100230003D9
:0100240002D9
:0100250001D9
:0100260000D9
:0100270000D8
:0100280000D7
:0100290000D6
:01002A0000D5
:01002B00FFD5
:01002C00FED5
:01002D00FDD5
:01002E00FDD4
:01002F00FCD4
:01003000FAD5
:01003100FCD2
:01003200FDD0
:01003300FDCF
:01003400FECD
:01003500FFCB
:0100360000C9
:0100370000C8
:0100380000C7
:0100390000C6
:01003A0000C5
:01003B0001C3
:01003C0002C1
:01003D0003BF
:01003E0003BE
:01003F0004BC
:010040000AB5
:0100410008B6
:0100420006B7
:0100430005B7
:0100440004B7
:0100450002B8
:0100460001B8
:0100470000B8
:0100480000B7
:0100490000B6
:01004A00FFB6
:01004B00FEB6
:01004C00FCB7
:01004D00FBB7
:01004E00FAB7
:01004F00F8B8
:01005000F6B9
:01005100F8B6
:01005200FAB3
:01005300FBB1
:01005400FCAF
:01005500FEAC
:01005600FFAA
:0100570000A8
:0100580000A7
:0100590000A6
:01005A0001A4
:01005B0002A2
:01005C00049F
:01005D00059D
:01005E00069B
:01005F000898
:010060000E91
:010061000B93
:010062000994
:010063000795
:010064000596
:010065000397
:010066000297
:010067000098
:010068000097
:010069000096
:01006A00FE97
:01006B00FD97
:01006C00FB98
:01006D00F999
:01006E00F79A
:01006F00F59B
:01007000F29D
:01007100F599
:01007200F796
:01007300F993
:01007400FB90
:01007500FD8D
:01007600FE8B
:010077000088
:010078000087
:010079000086
:01007A000283
:01007B000381
:01007C00057E
:01007D00077B
:01007E000978
:01007F000B75
:01008000126D
:010081000E70
:010082000B72
:010083000973
:010084000774
:010085000575
:010086000277
:010087000177
:010088000077
:01008900FF77
:01008A00FE77
:01008B00FB79
:01008C00F97A
:01008D00F77B
:01008E00F57C
:01008F00F27E
:01009000EE81
:01009100F27C
:01009200F578
:01009300F775
:01009400F972
:01009500FB6F
:01009600FE6B
:01009700FF69
:010098000067
:010099000165
:01009A000263
:01009B00055F
:01009C00075C
:01009D000959
:01009E000B56
:01009F000E52
:0100A0001649
:0100A100114D
:0100A2000E4F
:0100A3000B51
:0100A4000853
:0100A5000654
:0100A6000356
:0100A7000157
:0100A8000057
:0100A900FF57
:0100AA00FD58
:0100AB00FA5A
:0100AC00F85B
:0100AD00F55D
:0100AE00F25F
:0100AF00EF61
:0100B000EA65
:0100B100EF5F
:0100B200F25B
:0100B300F557
:0100B400F853
:0100B500FA50
:0100B600FD4C
:0100B700FF49
:0100B8000047
:0100B9000145
:0100BA000342
:0100BB00063E
:0100BC00083B
:0100BD000B37
:0100BE000E33
:0100BF00112F
:0100C0001A25
:0100C1001529
:0100C200112C
:0100C3000D2F
:0100C4000A31
:0100C5000733
:0100C6000435
:0100C7000137
:0100C8000037
:0100C900FF37
:0100CA00FC39
:0100CB00F93B
:0100CC00F63D
:0100CD00F33F
:0100CE00EF42
:0100CF00EB45
:0100D000E649
:0100D100EB43
:0100D200EF3E
:0100D300F339
:0100D400F635
:0100D500F931
:0100D600FC2D
:0100D700FF29
:0100D8000027
:0100D9000125
:0100DA000421
:0100DB00071D
:0100DC000A19
:0100DD000D15
:0100DE001110
:0100DF00150B
:0100E0001E01
:0100E1001806
:0100E200130A
:0100E3000F0D
:0100E4000C0F
:0100E5000812
:0100E6000415
:0100E7000117
:0100E8000017
:0100E900FF17
:0100EA00FC19
:0100EB00F81C
:0100EC00F41F
:0100ED00F121
:0100EE00ED24
:0100EF00E828
:0100F000E22D
:0100F100E826
:0100F200ED20
:0100F300F11B
:0100F400F417
:0100F500F812
:0100F600FC0D
:0100F700FF09
:0100F8000007
:0100F9000105
:0100FA000401
:0100FB0008FC
:0100FC000CF7
:0100FD000FF3
:0100FE0013EE
:0100FF0018E8
:0101000022DC
:010101001BE2
:0101020016E6
:0101030012E9
:010104000DED
:0101050009F0
:0101060005F3
:0101070002F5
:0101080000F6
:01010900FEF7
:01010A00FBF9
:01010B00F7FC
:01010C00F3FF
:01010D00EE03
:01010E00EA06
:01010F00E50A
:01011000DE10
:01011100E508
:01011200EA02
:01011300EEFD
:01011400F3F7
:01011500F7F2
:01011600FBED
:01011700FEE9
:0101180000E6
:0101190002E3
:01011A0005DF
:01011B0009DA
:01011C000DD5
:01011D0012CF
:01011E0016CA
:01011F001BC4
:0101200026B8
:010121001EBF
:0101220018C4
:0101230014C7
:010124000FCB
:010125000ACF
:0101260005D3
:0101270002D5
:0101280000D6
:01012900FED7
:01012A00FBD9
:01012B00F6DD
:01012C00F1E1
:01012D00ECE5
:01012E00E8E8
:01012F00E2ED
:01013000DAF4
:01013100E2EB
:01013200E8E4
:01013300ECDF
:01013400F1D9
:01013500F6D3
:01013600FBCD
:01013700FEC9
:0101380000C6
:0101390002C3
:01013A0005BF
:01013B000AB9
:01013C000FB3
:01013D0014AD
:01013E0018A8
:01013F001EA1
:010140002A94
:01014100229B
:010142001BA1
:0101430016A5
:0101440011A9
:010145000BAE
:0101460006B2
:0101470002B5
:0101480000B6
:01014900FEB7
:01014A00FABA
:01014B00F5BE
:01014C00EFC3
:01014D00EAC7
:01014E00E5CB
:01014F00DED1
:01015000D6D8
:01015100DECF
:01015200E5C7
:01015300EAC1
:01015400EFBB
:01015500F5B4
:01015600FAAE
:01015700FEA9
:0101580000A6
:0101590002A3
:01015A00069E
:01015B000B98
:01015C001191
:01015D00168B
:01015E001B85
:01015F00227D
:010160002E70
:010161002578
:010162001E7E
:010163001883
:010164001288
:010165000C8D
:010166000791
:010167000295
:010168000096
:01016900FE97
:01016A00F99B
:01016B00F49F
:01016C00EEA4
:01016D00E8A9
:01016E00E2AE
:01016F00DBB4
:01017000D2BC
:01017100DBB2
:01017200E2AA
:01017300E8A3
:01017400EE9C
:01017500F495
:01017600F98F
:01017700FE89
:010178000086
:010179000283
:01017A00077D
:01017B000C77
:01017C001270
:01017D001869
:01017E001E62
:01017F00255A
:01018000324C
:010181002855
:01018200205C
:010183001A61
:010184001466
:010185000E6B
:010186000771
:010187000374
:010188000076
:01018900FD78
:01018A00F97B
:01018B00F281
:01018C00EC86
:01018D00E68B
:01018E00E090
:01018F00D897
:01019000CEA0
:01019100D895
:01019200E08C
:01019300E685
:01019400EC7E
:01019500F277
:01019600F96F
:01019700FD6A
:010198000066
:010199000362
:01019A00075D
:01019B000E55
:01019C00144E
:01019D001A47
:01019E002040
:01019F002837
:0101A0003628
:0101A1002B32
:0101A2002339
:0101A3001C3F
:0101A4001545
:0101A5000F4A
:0101A6000850
:0101A7000354
:0101A8000056
:0101A900FD58
:0101AA00F85C
:0101AB00F162
:0101AC00EB67
:0101AD00E46D
:0101AE00DD73
:0101AF00D57A
:0101B000CA84
:0101B100D578
:0101B200DD6F
:0101B300E467
:0101B400EB5F
:0101B500F158
:0101B600F850
:0101B700FD4A
:0101B8000046
:0101B9000342
:0101BA00083C
:0101BB000F34
:0101BC00152D
:0101BD001C25
:0101BE00231D
:0101BF002B14
:0101C0003A04
:0101C1002F0E
:0101C2002616
:0101C3001E1D
:0101C4001723
:0101C5001029
:0101C600092F
:0101C7000334
:0101C8000036
:0101C900FD38
:0101CA00F73D
:0101CB00F043
:0101CC00E949
:0101CD00E24F
:0101CE00DA56
:0101CF00D15E
:0101D000C668
:0101D100D15C
:0101D200DA52
:0101D300E249
:0101D400E941
:0101D500F039
:0101D600F731
:0101D700FD2A
:0101D8000026
:0101D9000322
:0101DA00091B
:0101DB001013
:0101DC00170B
:0101DD001E03
:0101DE0026FA
:0101DF002FF0
:0101E0003EE0
:0101E10032EB
:0101E20028F4
:0101E30020FB
:0101E4001901
:0101E5001108
:0101E600090F
:0101E7000314
:0101E8000016
:0101E900FD18
:0101EA00F71D
:0101EB00EF24
:0101EC00E72B
:0101ED00E031
:0101EE00D838
:0101EF00CE41
:0101F000C24C
:0101F100CE3F
:0101F200D834
:0101F300E02B
:0101F400E723
:0101F500EF1A
:0101F600F711
:0101F700FD0A
:0101F8000006
:0101F9000302
:0101FA0009FB
:0101FB0011F2
:0101FC0019E9
:0101FD0020E1
:0101FE0028D8
:0101FF0032CD
:00000001FF
