:0100000003FC
:0100010002FC
:0100020001FC
:0100030001FB
:0100040001FA
:0100050000FA
:0100060000F9
:0100070000F8
:0100080000F7
:01000900FBFB
:01000A00FBFA
:01000B00FBF9
:01000C00FCF7
:01000D00FCF6
:01000E00FCF5
:01000F00FDF3
:01001000FDF2
:01001100FDF1
:01001200FCF1
:01001300FCF0
:01001400FCEF
:01001500FBEF
:01001600FBEE
:01001700FBED
:0100180000E7
:0100190000E6
:01001A0000E5
:01001B0000E4
:01001C0001E2
:01001D0001E1
:01001E0001E0
:01001F0002DE
:0100200007D8
:0100210005D9
:0100220004D9
:0100230003D9
:0100240002D9
:0100250001D9
:0100260001D8
:0100270000D8
:0100280000D7
:01002900F3E3
:01002A00F4E1
:01002B00F4E0
:01002C00F5DE
:01002D00F6DC
:01002E00F7DA
:01002F00F8D8
:01003000F9D6
:01003100F8D6
:01003200F7D6
:01003300F6D6
:01003400F5D6
:01003500F4D6
:01003600F4D5
:01003700F3D5
:0100380000C7
:0100390000C6
:01003A0001C4
:01003B0001C3
:01003C0002C1
:01003D0003BF
:01003E0004BD
:01003F0005BB
:010040000BB4
:0100410008B6
:0100420007B6
:0100430005B7
:0100440004B7
:0100450003B7
:0100460001B8
:0100470000B8
:0100480000B7
:01004900EBCB
:01004A00ECC9
:01004B00EEC6
:01004C00EFC4
:01004D00F0C2
:01004E00F2BF
:01004F00F3BD
:01005000F5BA
:01005100F3BB
:01005200F2BB
:01005300F0BC
:01005400EFBC
:01005500EEBC
:01005600ECBD
:01005700EBBD
:0100580000A7
:0100590000A6
:01005A0001A4
:01005B0003A1
:01005C00049F
:01005D00059D
:01005E00079A
:01005F000898
:010060000F90
:010061000C92
:010062000994
:010063000795
:010064000695
:010065000496
:010066000297
:010067000098
:010068000097
:01006900E3B3
:01006A00E5B0
:01006B00E7AD
:01006C00E9AA
:01006D00EAA8
:01006E00ECA5
:01006F00EFA1
:01007000F19E
:01007100EF9F
:01007200ECA1
:01007300EAA2
:01007400E9A2
:01007500E7A3
:01007600E5A4
:01007700E3A5
:010078000087
:010079000086
:01007A000283
:01007B000480
:01007C00067D
:01007D00077B
:01007E000978
:01007F000C74
:01008000136C
:010081000F6F
:010082000C71
:010083000A72
:010084000774
:010085000575
:010086000277
:010087000177
:010088000077
:01008900DC9A
:01008A00DD98
:01008B00E094
:01008C00E291
:01008D00E58D
:01008E00E78A
:01008F00EA86
:01009000ED82
:01009100EA84
:01009200E786
:01009300E587
:01009400E289
:01009500E08A
:01009600DD8C
:01009700DC8C
:010098000067
:010099000165
:01009A000263
:01009B00055F
:01009C00075C
:01009D000A58
:01009E000C55
:01009F000F51
:0100A0001748
:0100A100124C
:0100A2000F4E
:0100A3000C50
:0100A4000952
:0100A5000654
:0100A6000356
:0100A7000157
:0100A8000057
:0100A900D482
:0100AA00D67F
:0100AB00D97B
:0100AC00DC77
:0100AD00DF73
:0100AE00E26F
:0100AF00E56B
:0100B000E966
:0100B100E569
:0100B200E26B
:0100B300DF6D
:0100B400DC6F
:0100B500D971
:0100B600D673
:0100B700D474
:0100B8000047
:0100B9000145
:0100BA000342
:0100BB00063E
:0100BC00093A
:0100BD000C36
:0100BE000F32
:0100BF00122E
:0100C0001B24
:0100C1001529
:0100C200112C
:0100C3000E2E
:0100C4000A31
:0100C5000733
:0100C6000435
:0100C7000137
:0100C8000037
:0100C900CC6A
:0100CA00CF66
:0100CB00D262
:0100CC00D55E
:0100CD00D959
:0100CE00DC55
:0100CF00E050
:0100D000E54A
:0100D100E04E
:0100D200DC51
:0100D300D953
:0100D400D556
:0100D500D258
:0100D600CF5A
:0100D700CC5C
:0100D8000027
:0100D9000125
:0100DA000421
:0100DB00071D
:0100DC000A19
:0100DD000E14
:0100DE001110
:0100DF00150B
:0100E0001F00
:0100E1001905
:0100E2001409
:0100E300100C
:0100E4000C0F
:0100E5000812
:0100E6000415
:0100E7000117
:0100E8000017
:0100E900C452
:0100EA00C74E
:0100EB00CB49
:0100EC00CF44
:0100ED00D33F
:0100EE00D73A
:0100EF00DC34
:0100F000E12E
:0100F100DC32
:0100F200D736
:0100F300D339
:0100F400CF3C
:0100F500CB3F
:0100F600C742
:0100F700C444
:0100F8000007
:0100F9000105
:0100FA000401
:0100FB0008FC
:0100FC000CF7
:0100FD0010F2
:0100FE0014ED
:0100FF0019E7
:0101000023DB
:010101001CE1
:0101020016E6
:0101030012E9
:010104000EEC
:0101050009F0
:0101060005F3
:0101070002F5
:0101080000F6
:01010900BD38
:01010A00C034
:01010B00C42F
:01010C00C929
:01010D00CD24
:01010E00D11F
:01010F00D718
:01011000DD11
:01011100D716
:01011200D11B
:01011300CD1E
:01011400C921
:01011500C425
:01011600C028
:01011700BD2A
:0101180000E6
:0101190002E3
:01011A0005DF
:01011B0009DA
:01011C000ED4
:01011D0012CF
:01011E0016CA
:01011F001CC3
:0101200027B7
:010121001FBE
:0101220019C3
:0101230014C7
:010124000FCB
:010125000ACF
:0101260006D2
:0101270002D5
:0101280000D6
:01012900B520
:01012A00B91B
:01012B00BD16
:01012C00C210
:01012D00C70A
:01012E00CC04
:01012F00D2FD
:01013000D9F5
:01013100D2FB
:01013200CC00
:01013300C704
:01013400C208
:01013500BD0C
:01013600B90F
:01013700B512
:0101380000C6
:0101390002C3
:01013A0006BE
:01013B000AB9
:01013C000FB3
:01013D0014AD
:01013E0019A7
:01013F001FA0
:010140002B93
:01014100229B
:010142001CA0
:0101430016A5
:0101440011A9
:010145000CAD
:0101460006B2
:0101470002B5
:0101480000B6
:01014900AD08
:01014A00B103
:01014B00B7FC
:01014C00BCF6
:01014D00C1F0
:01014E00C7E9
:01014F00CDE2
:01015000D5D9
:01015100CDE0
:01015200C7E5
:01015300C1EA
:01015400BCEE
:01015500B7F2
:01015600B1F7
:01015700ADFA
:0101580000A6
:0101590002A3
:01015A00069E
:01015B000C97
:01015C001191
:01015D00168B
:01015E001C84
:01015F00227D
:010160002F6F
:010161002677
:010162001E7E
:010163001883
:010164001387
:010165000D8C
:010166000791
:010167000295
:010168000096
:01016900A5F0
:01016A00AAEA
:01016B00B0E3
:01016C00B6DC
:01016D00BBD6
:01016E00C1CF
:01016F00C9C6
:01017000D1BD
:01017100C9C4
:01017200C1CB
:01017300BBD0
:01017400B6D4
:01017500B0D9
:01017600AADE
:01017700A5E2
:010178000086
:010179000283
:01017A00077D
:01017B000D76
:01017C00136F
:01017D001869
:01017E001E62
:01017F002659
:01018000334B
:010181002954
:01018200215B
:010183001B60
:010184001466
:010185000E6B
:010186000771
:010187000374
:010188000076
:010189009ED7
:01018A00A2D2
:01018B00A9CA
:01018C00AFC3
:01018D00B6BB
:01018E00BCB4
:01018F00C4AB
:01019000CDA1
:01019100C4A9
:01019200BCB0
:01019300B6B5
:01019400AFBB
:01019500A9C0
:01019600A2C6
:010197009EC9
:010198000066
:010199000362
:01019A00075D
:01019B000E55
:01019C00144E
:01019D001B46
:01019E00213F
:01019F002936
:0101A0003727
:0101A1002C31
:0101A2002438
:0101A3001D3E
:0101A4001644
:0101A5000F4A
:0101A6000850
:0101A7000354
:0101A8000056
:0101A90096BF
:0101AA009BB9
:0101AB00A2B1
:0101AC00A9A9
:0101AD00B0A1
:0101AE00B799
:0101AF00BF90
:0101B000C985
:0101B100BF8E
:0101B200B795
:0101B300B09B
:0101B400A9A1
:0101B500A2A7
:0101B6009BAD
:0101B70096B1
:0101B8000046
:0101B9000342
:0101BA00083C
:0101BB000F34
:0101BC00162C
:0101BD001D24
:0101BE00241C
:0101BF002C13
:0101C0003B03
:0101C1002F0E
:0101C2002616
:0101C3001F1C
:0101C4001723
:0101C5001029
:0101C600092F
:0101C7000334
:0101C8000036
:0101C9008EA7
:0101CA0094A0
:0101CB009B98
:0101CC00A290
:0101CD00AA87
:0101CE00B17F
:0101CF00BA75
:0101D000C569
:0101D100BA73
:0101D200B17B
:0101D300AA81
:0101D400A288
:0101D5009B8E
:0101D6009494
:0101D7008E99
:0101D8000026
:0101D9000322
:0101DA00091B
:0101DB001013
:0101DC00170B
:0101DD001F02
:0101DE0026FA
:0101DF002FF0
:0101E0003FDF
:0101E10033EA
:0101E20029F3
:0101E30021FA
:0101E4001901
:0101E5001108
:0101E600090F
:0101E7000314
:0101E8000016
:0101E900868F
:0101EA008C88
:0101EB00947F
:0101EC009C76
:0101ED00A46D
:0101EE00AC64
:0101EF00B659
:0101F000C14D
:0101F100B657
:0101F200AC60
:0101F300A467
:0101F4009C6E
:0101F5009475
:0101F6008C7C
:0101F7008681
:0101F8000006
:0101F9000302
:0101FA0009FB
:0101FB0011F2
:0101FC0019E9
:0101FD0021E0
:0101FE0029D7
:0101FF0033CC
:00000001FF
